{
  "contractName": "TodoList",
  "abi": [
    {
      "anonymous": false,
      "inputs": [
        {
          "indexed": false,
          "internalType": "uint256",
          "name": "id",
          "type": "uint256"
        },
        {
          "indexed": false,
          "internalType": "bool",
          "name": "completed",
          "type": "bool"
        }
      ],
      "name": "TaskCompleted",
      "type": "event"
    },
    {
      "anonymous": false,
      "inputs": [
        {
          "indexed": false,
          "internalType": "uint256",
          "name": "id",
          "type": "uint256"
        },
        {
          "indexed": false,
          "internalType": "string",
          "name": "content",
          "type": "string"
        },
        {
          "indexed": false,
          "internalType": "bool",
          "name": "completed",
          "type": "bool"
        },
        {
          "indexed": false,
          "internalType": "uint256",
          "name": "createdAt",
          "type": "uint256"
        }
      ],
      "name": "TaskCreated",
      "type": "event"
    },
    {
      "inputs": [],
      "name": "taskCount",
      "outputs": [
        {
          "internalType": "uint256",
          "name": "",
          "type": "uint256"
        }
      ],
      "stateMutability": "view",
      "type": "function",
      "constant": true
    },
    {
      "inputs": [
        {
          "internalType": "uint256",
          "name": "",
          "type": "uint256"
        }
      ],
      "name": "tasks",
      "outputs": [
        {
          "internalType": "uint256",
          "name": "id",
          "type": "uint256"
        },
        {
          "internalType": "string",
          "name": "content",
          "type": "string"
        },
        {
          "internalType": "bool",
          "name": "completed",
          "type": "bool"
        },
        {
          "internalType": "uint256",
          "name": "createdAt",
          "type": "uint256"
        }
      ],
      "stateMutability": "view",
      "type": "function",
      "constant": true
    },
    {
      "inputs": [
        {
          "internalType": "string",
          "name": "_content",
          "type": "string"
        },
        {
          "internalType": "uint256",
          "name": "_timestamp",
          "type": "uint256"
        }
      ],
      "name": "createTask",
      "outputs": [],
      "stateMutability": "nonpayable",
      "type": "function"
    },
    {
      "inputs": [
        {
          "internalType": "uint256",
          "name": "_id",
          "type": "uint256"
        }
      ],
      "name": "toggleCompleted",
      "outputs": [],
      "stateMutability": "nonpayable",
      "type": "function"
    }
  ],
  "bytecode": "0x60806040526000805534801561001457600080fd5b5061093c806100246000396000f3fe608060405234801561001057600080fd5b506004361061004c5760003560e01c806304fe2b3414610051578063455f50241461006d5780638d97767214610089578063b6cb58a5146100bc575b600080fd5b61006b60048036038101906100669190610662565b6100da565b005b610087600480360381019061008291906106be565b6101c3565b005b6100a3600480360381019061009e91906106be565b610364565b6040516100b3949392919061079d565b60405180910390f35b6100c4610429565b6040516100d191906107e9565b60405180910390f35b6000808154809291906100ec90610833565b91905055506040518060800160405280600054815260200183815260200160001515815260200182815250600160008054815260200190815260200160002060008201518160000155602082015181600101908051906020019061015192919061042f565b5060408201518160020160006101000a81548160ff021916908315150217905550606082015181600301559050507ff844eff5bb3b551f3ab172f7edad2073ce268e60cbb5bf8a7b6d5e41154b0f46600054836000846040516101b7949392919061079d565b60405180910390a15050565b600060016000838152602001908152602001600020604051806080016040529081600082015481526020016001820180546101fd906108ab565b80601f0160208091040260200160405190810160405280929190818152602001828054610229906108ab565b80156102765780601f1061024b57610100808354040283529160200191610276565b820191906000526020600020905b81548152906001019060200180831161025957829003601f168201915b505050505081526020016002820160009054906101000a900460ff16151515158152602001600382015481525050905080604001511581604001901515908115158152505080600160008481526020019081526020016000206000820151816000015560208201518160010190805190602001906102f592919061042f565b5060408201518160020160006101000a81548160ff021916908315150217905550606082015181600301559050507fe21fa966ca5cd02748c0752352d18c48165e61cb55b4c29cccf924b5a95fcff18282604001516040516103589291906108dd565b60405180910390a15050565b600160205280600052604060002060009150905080600001549080600101805461038d906108ab565b80601f01602080910402602001604051908101604052809291908181526020018280546103b9906108ab565b80156104065780601f106103db57610100808354040283529160200191610406565b820191906000526020600020905b8154815290600101906020018083116103e957829003601f168201915b5050505050908060020160009054906101000a900460ff16908060030154905084565b60005481565b82805461043b906108ab565b90600052602060002090601f01602090048101928261045d57600085556104a4565b82601f1061047657805160ff19168380011785556104a4565b828001600101855582156104a4579182015b828111156104a3578251825591602001919060010190610488565b5b5090506104b191906104b5565b5090565b5b808211156104ce5760008160009055506001016104b6565b5090565b6000604051905090565b600080fd5b600080fd5b600080fd5b600080fd5b6000601f19601f8301169050919050565b7f4e487b7100000000000000000000000000000000000000000000000000000000600052604160045260246000fd5b610539826104f0565b810181811067ffffffffffffffff8211171561055857610557610501565b5b80604052505050565b600061056b6104d2565b90506105778282610530565b919050565b600067ffffffffffffffff82111561059757610596610501565b5b6105a0826104f0565b9050602081019050919050565b82818337600083830152505050565b60006105cf6105ca8461057c565b610561565b9050828152602081018484840111156105eb576105ea6104eb565b5b6105f68482856105ad565b509392505050565b600082601f830112610613576106126104e6565b5b81356106238482602086016105bc565b91505092915050565b6000819050919050565b61063f8161062c565b811461064a57600080fd5b50565b60008135905061065c81610636565b92915050565b60008060408385031215610679576106786104dc565b5b600083013567ffffffffffffffff811115610697576106966104e1565b5b6106a3858286016105fe565b92505060206106b48582860161064d565b9150509250929050565b6000602082840312156106d4576106d36104dc565b5b60006106e28482850161064d565b91505092915050565b6106f48161062c565b82525050565b600081519050919050565b600082825260208201905092915050565b60005b83811015610734578082015181840152602081019050610719565b83811115610743576000848401525b50505050565b6000610754826106fa565b61075e8185610705565b935061076e818560208601610716565b610777816104f0565b840191505092915050565b60008115159050919050565b61079781610782565b82525050565b60006080820190506107b260008301876106eb565b81810360208301526107c48186610749565b90506107d3604083018561078e565b6107e060608301846106eb565b95945050505050565b60006020820190506107fe60008301846106eb565b92915050565b7f4e487b7100000000000000000000000000000000000000000000000000000000600052601160045260246000fd5b600061083e8261062c565b91507fffffffffffffffffffffffffffffffffffffffffffffffffffffffffffffffff82141561087157610870610804565b5b600182019050919050565b7f4e487b7100000000000000000000000000000000000000000000000000000000600052602260045260246000fd5b600060028204905060018216806108c357607f821691505b602082108114156108d7576108d661087c565b5b50919050565b60006040820190506108f260008301856106eb565b6108ff602083018461078e565b939250505056fea264697066735822122081925dc3172d518b33de30112e6adfec7de60ed62f22c8f9818fb6696ff1f16164736f6c634300080b0033",
  "immutableReferences": {},
  "source": "// smart contract for todo list\r\n// SPDX-License-Identifier: UNLICENSED\r\n\r\npragma solidity >=0.5.0;\r\n\r\ncontract TodoList{\r\n    // keep track for number of task in the list\r\n\r\n    // declaring the state variable\r\n    uint public taskCount = 0;\r\n\r\n    // creating our own data type\r\n    struct Task {\r\n        uint id;\r\n        string content;\r\n        bool completed;\r\n        uint256 createdAt;\r\n    }\r\n\r\n    // put this on the blockchain storage\r\n\r\n    mapping(uint => Task) public tasks;  // Mapping on the blockchain id -> mapping a task\r\n\r\n    event TaskCreated(\r\n        uint id,\r\n        string content,\r\n        bool completed,\r\n        uint256 createdAt\r\n    );\r\n\r\n    event TaskCompleted(\r\n        uint id,\r\n        bool completed\r\n    );\r\n\r\n    // setting the constructor\r\n    // constructor() public {\r\n    //     // createTask(\"Creating my first task\", 0);\r\n    // }\r\n\r\n    // putting a task inside of the mapping\r\n    function createTask(string memory _content, uint256 _timestamp) public {\r\n        taskCount ++;\r\n        tasks[taskCount] = Task(taskCount, _content, false, _timestamp);\r\n\r\n        // broadcasting an event \r\n\r\n        emit TaskCreated(taskCount, _content, false, _timestamp);\r\n    }\r\n\r\n    function toggleCompleted(uint _id) public {\r\n        Task memory _currTask = tasks[_id];\r\n\r\n        _currTask.completed = !_currTask.completed;\r\n        tasks[_id] = _currTask;\r\n\r\n        emit TaskCompleted(_id, _currTask.completed);\r\n    }   \r\n\r\n}",
  "sourcePath": "E:\\TechNomads\\D-App\\TaskManager\\contracts\\TodoList.sol",
  "compiler": {
    "name": "solc",
    "version": "0.8.11+commit.d7f03943.Emscripten.clang"
  },
  "schemaVersion": "3.4.4",
  "updatedAt": "2022-01-26T11:09:13.268Z",
  "networkType": "ethereum",
  "devdoc": {
    "kind": "dev",
    "methods": {},
    "version": 1
  },
  "userdoc": {
    "kind": "user",
    "methods": {},
    "version": 1
  }
}