{
  "_format": "hh-sol-artifact-1",
  "contractName": "WesTer",
  "sourceName": "contracts/WesTer.sol",
  "abi": [
    {
      "inputs": [],
      "stateMutability": "nonpayable",
      "type": "constructor"
    },
    {
      "anonymous": false,
      "inputs": [
        {
          "indexed": true,
          "internalType": "address",
          "name": "owner",
          "type": "address"
        },
        {
          "indexed": true,
          "internalType": "address",
          "name": "approved",
          "type": "address"
        },
        {
          "indexed": true,
          "internalType": "uint256",
          "name": "tokenId",
          "type": "uint256"
        }
      ],
      "name": "Approval",
      "type": "event"
    },
    {
      "anonymous": false,
      "inputs": [
        {
          "indexed": true,
          "internalType": "address",
          "name": "owner",
          "type": "address"
        },
        {
          "indexed": true,
          "internalType": "address",
          "name": "operator",
          "type": "address"
        },
        {
          "indexed": false,
          "internalType": "bool",
          "name": "approved",
          "type": "bool"
        }
      ],
      "name": "ApprovalForAll",
      "type": "event"
    },
    {
      "anonymous": false,
      "inputs": [
        {
          "indexed": true,
          "internalType": "address",
          "name": "previousOwner",
          "type": "address"
        },
        {
          "indexed": true,
          "internalType": "address",
          "name": "newOwner",
          "type": "address"
        }
      ],
      "name": "OwnershipTransferred",
      "type": "event"
    },
    {
      "anonymous": false,
      "inputs": [
        {
          "indexed": true,
          "internalType": "address",
          "name": "from",
          "type": "address"
        },
        {
          "indexed": true,
          "internalType": "address",
          "name": "to",
          "type": "address"
        },
        {
          "indexed": true,
          "internalType": "uint256",
          "name": "tokenId",
          "type": "uint256"
        }
      ],
      "name": "Transfer",
      "type": "event"
    },
    {
      "inputs": [
        {
          "internalType": "address",
          "name": "to",
          "type": "address"
        },
        {
          "internalType": "uint256",
          "name": "tokenId",
          "type": "uint256"
        }
      ],
      "name": "approve",
      "outputs": [],
      "stateMutability": "nonpayable",
      "type": "function"
    },
    {
      "inputs": [
        {
          "internalType": "address",
          "name": "owner",
          "type": "address"
        }
      ],
      "name": "balanceOf",
      "outputs": [
        {
          "internalType": "uint256",
          "name": "",
          "type": "uint256"
        }
      ],
      "stateMutability": "view",
      "type": "function"
    },
    {
      "inputs": [
        {
          "internalType": "uint256",
          "name": "_tokenID",
          "type": "uint256"
        },
        {
          "internalType": "address",
          "name": "_to",
          "type": "address"
        }
      ],
      "name": "buyNFT",
      "outputs": [],
      "stateMutability": "nonpayable",
      "type": "function"
    },
    {
      "inputs": [
        {
          "internalType": "uint256",
          "name": "tokenId",
          "type": "uint256"
        }
      ],
      "name": "getApproved",
      "outputs": [
        {
          "internalType": "address",
          "name": "",
          "type": "address"
        }
      ],
      "stateMutability": "view",
      "type": "function"
    },
    {
      "inputs": [
        {
          "internalType": "address",
          "name": "owner",
          "type": "address"
        },
        {
          "internalType": "address",
          "name": "operator",
          "type": "address"
        }
      ],
      "name": "isApprovedForAll",
      "outputs": [
        {
          "internalType": "bool",
          "name": "",
          "type": "bool"
        }
      ],
      "stateMutability": "view",
      "type": "function"
    },
    {
      "inputs": [
        {
          "internalType": "string",
          "name": "tokenURI",
          "type": "string"
        }
      ],
      "name": "mintNFT",
      "outputs": [
        {
          "internalType": "uint256",
          "name": "",
          "type": "uint256"
        }
      ],
      "stateMutability": "nonpayable",
      "type": "function"
    },
    {
      "inputs": [],
      "name": "name",
      "outputs": [
        {
          "internalType": "string",
          "name": "",
          "type": "string"
        }
      ],
      "stateMutability": "view",
      "type": "function"
    },
    {
      "inputs": [
        {
          "internalType": "uint256",
          "name": "",
          "type": "uint256"
        }
      ],
      "name": "nfts",
      "outputs": [
        {
          "internalType": "uint256",
          "name": "id",
          "type": "uint256"
        },
        {
          "internalType": "string",
          "name": "uri",
          "type": "string"
        },
        {
          "internalType": "address",
          "name": "owner",
          "type": "address"
        }
      ],
      "stateMutability": "view",
      "type": "function"
    },
    {
      "inputs": [],
      "name": "owner",
      "outputs": [
        {
          "internalType": "address",
          "name": "",
          "type": "address"
        }
      ],
      "stateMutability": "view",
      "type": "function"
    },
    {
      "inputs": [
        {
          "internalType": "uint256",
          "name": "tokenId",
          "type": "uint256"
        }
      ],
      "name": "ownerOf",
      "outputs": [
        {
          "internalType": "address",
          "name": "",
          "type": "address"
        }
      ],
      "stateMutability": "view",
      "type": "function"
    },
    {
      "inputs": [],
      "name": "renounceOwnership",
      "outputs": [],
      "stateMutability": "nonpayable",
      "type": "function"
    },
    {
      "inputs": [
        {
          "internalType": "address",
          "name": "from",
          "type": "address"
        },
        {
          "internalType": "address",
          "name": "to",
          "type": "address"
        },
        {
          "internalType": "uint256",
          "name": "tokenId",
          "type": "uint256"
        }
      ],
      "name": "safeTransferFrom",
      "outputs": [],
      "stateMutability": "nonpayable",
      "type": "function"
    },
    {
      "inputs": [
        {
          "internalType": "address",
          "name": "from",
          "type": "address"
        },
        {
          "internalType": "address",
          "name": "to",
          "type": "address"
        },
        {
          "internalType": "uint256",
          "name": "tokenId",
          "type": "uint256"
        },
        {
          "internalType": "bytes",
          "name": "_data",
          "type": "bytes"
        }
      ],
      "name": "safeTransferFrom",
      "outputs": [],
      "stateMutability": "nonpayable",
      "type": "function"
    },
    {
      "inputs": [
        {
          "internalType": "address",
          "name": "operator",
          "type": "address"
        },
        {
          "internalType": "bool",
          "name": "approved",
          "type": "bool"
        }
      ],
      "name": "setApprovalForAll",
      "outputs": [],
      "stateMutability": "nonpayable",
      "type": "function"
    },
    {
      "inputs": [
        {
          "internalType": "bytes4",
          "name": "interfaceId",
          "type": "bytes4"
        }
      ],
      "name": "supportsInterface",
      "outputs": [
        {
          "internalType": "bool",
          "name": "",
          "type": "bool"
        }
      ],
      "stateMutability": "view",
      "type": "function"
    },
    {
      "inputs": [],
      "name": "symbol",
      "outputs": [
        {
          "internalType": "string",
          "name": "",
          "type": "string"
        }
      ],
      "stateMutability": "view",
      "type": "function"
    },
    {
      "inputs": [
        {
          "internalType": "uint256",
          "name": "tokenId",
          "type": "uint256"
        }
      ],
      "name": "tokenURI",
      "outputs": [
        {
          "internalType": "string",
          "name": "",
          "type": "string"
        }
      ],
      "stateMutability": "view",
      "type": "function"
    },
    {
      "inputs": [
        {
          "internalType": "address",
          "name": "from",
          "type": "address"
        },
        {
          "internalType": "address",
          "name": "to",
          "type": "address"
        },
        {
          "internalType": "uint256",
          "name": "tokenId",
          "type": "uint256"
        }
      ],
      "name": "transferFrom",
      "outputs": [],
      "stateMutability": "nonpayable",
      "type": "function"
    },
    {
      "inputs": [
        {
          "internalType": "address",
          "name": "newOwner",
          "type": "address"
        }
      ],
      "name": "transferOwnership",
      "outputs": [],
      "stateMutability": "nonpayable",
      "type": "function"
    }
  ],
  "bytecode": "0x60806040523480156200001157600080fd5b506040518060400160405280600681526020017f57657354657200000000000000000000000000000000000000000000000000008152506040518060400160405280600281526020017f5754000000000000000000000000000000000000000000000000000000000000815250816000908051906020019062000096929190620001a6565b508060019080519060200190620000af929190620001a6565b505050620000d2620000c6620000d860201b60201c565b620000e060201b60201c565b620002bb565b600033905090565b6000600760009054906101000a900473ffffffffffffffffffffffffffffffffffffffff16905081600760006101000a81548173ffffffffffffffffffffffffffffffffffffffff021916908373ffffffffffffffffffffffffffffffffffffffff1602179055508173ffffffffffffffffffffffffffffffffffffffff168173ffffffffffffffffffffffffffffffffffffffff167f8be0079c531659141344cd1fd0a4f28419497f9722a3daafe3b4186f6b6457e060405160405180910390a35050565b828054620001b49062000256565b90600052602060002090601f016020900481019282620001d8576000855562000224565b82601f10620001f357805160ff191683800117855562000224565b8280016001018555821562000224579182015b828111156200022357825182559160200191906001019062000206565b5b50905062000233919062000237565b5090565b5b808211156200025257600081600090555060010162000238565b5090565b600060028204905060018216806200026f57607f821691505b602082108114156200028657620002856200028c565b5b50919050565b7f4e487b7100000000000000000000000000000000000000000000000000000000600052602260045260246000fd5b61332f80620002cb6000396000f3fe608060405234801561001057600080fd5b50600436106101215760003560e01c8063715018a6116100ad578063c87b56dd11610071578063c87b56dd14610308578063d8db47a714610338578063e985e9c514610354578063f2fde38b14610384578063fb37e883146103a057610121565b8063715018a61461028a5780638da5cb5b1461029457806395d89b41146102b2578063a22cb465146102d0578063b88d4fde146102ec57610121565b806323b872dd116100f457806323b872dd146101c0578063265aa621146101dc57806342842e0e1461020e5780636352211e1461022a57806370a082311461025a57610121565b806301ffc9a71461012657806306fdde0314610156578063081812fc14610174578063095ea7b3146101a4575b600080fd5b610140600480360381019061013b9190612322565b6103d0565b60405161014d9190612c09565b60405180910390f35b61015e6104b2565b60405161016b9190612c24565b60405180910390f35b61018e600480360381019061018991906123b5565b610544565b60405161019b9190612ba2565b60405180910390f35b6101be60048036038101906101b991906122e6565b6105c9565b005b6101da60048036038101906101d591906121e0565b6106e1565b005b6101f660048036038101906101f191906123b5565b610741565b60405161020593929190612ea1565b60405180910390f35b610228600480360381019061022391906121e0565b610813565b005b610244600480360381019061023f91906123b5565b610833565b6040516102519190612ba2565b60405180910390f35b610274600480360381019061026f919061217b565b6108e5565b6040516102819190612e86565b60405180910390f35b61029261099d565b005b61029c610a25565b6040516102a99190612ba2565b60405180910390f35b6102ba610a4f565b6040516102c79190612c24565b60405180910390f35b6102ea60048036038101906102e591906122aa565b610ae1565b005b6103066004803603810190610301919061222f565b610af7565b005b610322600480360381019061031d91906123b5565b610b59565b60405161032f9190612c24565b60405180910390f35b610352600480360381019061034d91906123de565b610cab565b005b61036e600480360381019061036991906121a4565b610ed7565b60405161037b9190612c09565b60405180910390f35b61039e6004803603810190610399919061217b565b610f6b565b005b6103ba60048036038101906103b59190612374565b611063565b6040516103c79190612e86565b60405180910390f35b60007f80ac58cd000000000000000000000000000000000000000000000000000000007bffffffffffffffffffffffffffffffffffffffffffffffffffffffff1916827bffffffffffffffffffffffffffffffffffffffffffffffffffffffff1916148061049b57507f5b5e139f000000000000000000000000000000000000000000000000000000007bffffffffffffffffffffffffffffffffffffffffffffffffffffffff1916827bffffffffffffffffffffffffffffffffffffffffffffffffffffffff1916145b806104ab57506104aa826111e3565b5b9050919050565b6060600080546104c190613124565b80601f01602080910402602001604051908101604052809291908181526020018280546104ed90613124565b801561053a5780601f1061050f5761010080835404028352916020019161053a565b820191906000526020600020905b81548152906001019060200180831161051d57829003601f168201915b5050505050905090565b600061054f8261124d565b61058e576040517f08c379a000000000000000000000000000000000000000000000000000000000815260040161058590612dc6565b60405180910390fd5b6004600083815260200190815260200160002060009054906101000a900473ffffffffffffffffffffffffffffffffffffffff169050919050565b60006105d482610833565b90508073ffffffffffffffffffffffffffffffffffffffff168373ffffffffffffffffffffffffffffffffffffffff161415610645576040517f08c379a000000000000000000000000000000000000000000000000000000000815260040161063c90612e46565b60405180910390fd5b8073ffffffffffffffffffffffffffffffffffffffff166106646112b9565b73ffffffffffffffffffffffffffffffffffffffff16148061069357506106928161068d6112b9565b610ed7565b5b6106d2576040517f08c379a00000000000000000000000000000000000000000000000000000000081526004016106c990612d06565b60405180910390fd5b6106dc83836112c1565b505050565b6106f26106ec6112b9565b8261137a565b610731576040517f08c379a000000000000000000000000000000000000000000000000000000000815260040161072890612e66565b60405180910390fd5b61073c838383611458565b505050565b600960205280600052604060002060009150905080600001549080600101805461076a90613124565b80601f016020809104026020016040519081016040528092919081815260200182805461079690613124565b80156107e35780601f106107b8576101008083540402835291602001916107e3565b820191906000526020600020905b8154815290600101906020018083116107c657829003601f168201915b5050505050908060020160009054906101000a900473ffffffffffffffffffffffffffffffffffffffff16905083565b61082e83838360405180602001604052806000815250610af7565b505050565b6000806002600084815260200190815260200160002060009054906101000a900473ffffffffffffffffffffffffffffffffffffffff169050600073ffffffffffffffffffffffffffffffffffffffff168173ffffffffffffffffffffffffffffffffffffffff1614156108dc576040517f08c379a00000000000000000000000000000000000000000000000000000000081526004016108d390612d46565b60405180910390fd5b80915050919050565b60008073ffffffffffffffffffffffffffffffffffffffff168273ffffffffffffffffffffffffffffffffffffffff161415610956576040517f08c379a000000000000000000000000000000000000000000000000000000000815260040161094d90612d26565b60405180910390fd5b600360008373ffffffffffffffffffffffffffffffffffffffff1673ffffffffffffffffffffffffffffffffffffffff168152602001908152602001600020549050919050565b6109a56112b9565b73ffffffffffffffffffffffffffffffffffffffff166109c3610a25565b73ffffffffffffffffffffffffffffffffffffffff1614610a19576040517f08c379a0000000000000000000000000000000000000000000000000000000008152600401610a1090612de6565b60405180910390fd5b610a2360006116b4565b565b6000600760009054906101000a900473ffffffffffffffffffffffffffffffffffffffff16905090565b606060018054610a5e90613124565b80601f0160208091040260200160405190810160405280929190818152602001828054610a8a90613124565b8015610ad75780601f10610aac57610100808354040283529160200191610ad7565b820191906000526020600020905b815481529060010190602001808311610aba57829003601f168201915b5050505050905090565b610af3610aec6112b9565b838361177a565b5050565b610b08610b026112b9565b8361137a565b610b47576040517f08c379a0000000000000000000000000000000000000000000000000000000008152600401610b3e90612e66565b60405180910390fd5b610b53848484846118e7565b50505050565b6060610b648261124d565b610ba3576040517f08c379a0000000000000000000000000000000000000000000000000000000008152600401610b9a90612da6565b60405180910390fd5b6000600660008481526020019081526020016000208054610bc390613124565b80601f0160208091040260200160405190810160405280929190818152602001828054610bef90613124565b8015610c3c5780601f10610c1157610100808354040283529160200191610c3c565b820191906000526020600020905b815481529060010190602001808311610c1f57829003601f168201915b505050505090506000610c4d611943565b9050600081511415610c63578192505050610ca6565b600082511115610c98578082604051602001610c80929190612b7e565b60405160208183030381529060405292505050610ca6565b610ca18461195a565b925050505b919050565b600854821115610cba57600080fd5b60006009600084815260200190815260200160002060020160009054906101000a900473ffffffffffffffffffffffffffffffffffffffff169050610d008183856106e1565b60006009600085815260200190815260200160002060405180606001604052908160008201548152602001600182018054610d3a90613124565b80601f0160208091040260200160405190810160405280929190818152602001828054610d6690613124565b8015610db35780601f10610d8857610100808354040283529160200191610db3565b820191906000526020600020905b815481529060010190602001808311610d9657829003601f168201915b505050505081526020016002820160009054906101000a900473ffffffffffffffffffffffffffffffffffffffff1673ffffffffffffffffffffffffffffffffffffffff1673ffffffffffffffffffffffffffffffffffffffff1681525050905082816040019073ffffffffffffffffffffffffffffffffffffffff16908173ffffffffffffffffffffffffffffffffffffffff16815250508060096000868152602001908152602001600020600082015181600001556020820151816001019080519060200190610e86929190611f9f565b5060408201518160020160006101000a81548173ffffffffffffffffffffffffffffffffffffffff021916908373ffffffffffffffffffffffffffffffffffffffff16021790555090505050505050565b6000600560008473ffffffffffffffffffffffffffffffffffffffff1673ffffffffffffffffffffffffffffffffffffffff16815260200190815260200160002060008373ffffffffffffffffffffffffffffffffffffffff1673ffffffffffffffffffffffffffffffffffffffff16815260200190815260200160002060009054906101000a900460ff16905092915050565b610f736112b9565b73ffffffffffffffffffffffffffffffffffffffff16610f91610a25565b73ffffffffffffffffffffffffffffffffffffffff1614610fe7576040517f08c379a0000000000000000000000000000000000000000000000000000000008152600401610fde90612de6565b60405180910390fd5b600073ffffffffffffffffffffffffffffffffffffffff168173ffffffffffffffffffffffffffffffffffffffff161415611057576040517f08c379a000000000000000000000000000000000000000000000000000000000815260040161104e90612c66565b60405180910390fd5b611060816116b4565b50565b600061106d6112b9565b73ffffffffffffffffffffffffffffffffffffffff1661108b610a25565b73ffffffffffffffffffffffffffffffffffffffff16146110e1576040517f08c379a00000000000000000000000000000000000000000000000000000000081526004016110d890612de6565b60405180910390fd5b6110ec306001610ae1565b600860008154809291906110ff90613156565b9190505550600060085490506111153382611a01565b61111f8184611bcf565b600060405180606001604052808381526020018581526020013373ffffffffffffffffffffffffffffffffffffffff168152509050806009600084815260200190815260200160002060008201518160000155602082015181600101908051906020019061118e929190611f9f565b5060408201518160020160006101000a81548173ffffffffffffffffffffffffffffffffffffffff021916908373ffffffffffffffffffffffffffffffffffffffff1602179055509050508192505050919050565b60007f01ffc9a7000000000000000000000000000000000000000000000000000000007bffffffffffffffffffffffffffffffffffffffffffffffffffffffff1916827bffffffffffffffffffffffffffffffffffffffffffffffffffffffff1916149050919050565b60008073ffffffffffffffffffffffffffffffffffffffff166002600084815260200190815260200160002060009054906101000a900473ffffffffffffffffffffffffffffffffffffffff1673ffffffffffffffffffffffffffffffffffffffff1614159050919050565b600033905090565b816004600083815260200190815260200160002060006101000a81548173ffffffffffffffffffffffffffffffffffffffff021916908373ffffffffffffffffffffffffffffffffffffffff160217905550808273ffffffffffffffffffffffffffffffffffffffff1661133483610833565b73ffffffffffffffffffffffffffffffffffffffff167f8c5be1e5ebec7d5bd14f71427d1e84f3dd0314c0f7b2291e5b200ac8c7c3b92560405160405180910390a45050565b60006113858261124d565b6113c4576040517f08c379a00000000000000000000000000000000000000000000000000000000081526004016113bb90612ce6565b60405180910390fd5b60006113cf83610833565b90508073ffffffffffffffffffffffffffffffffffffffff168473ffffffffffffffffffffffffffffffffffffffff16148061143e57508373ffffffffffffffffffffffffffffffffffffffff1661142684610544565b73ffffffffffffffffffffffffffffffffffffffff16145b8061144f575061144e8185610ed7565b5b91505092915050565b8273ffffffffffffffffffffffffffffffffffffffff1661147882610833565b73ffffffffffffffffffffffffffffffffffffffff16146114ce576040517f08c379a00000000000000000000000000000000000000000000000000000000081526004016114c590612e06565b60405180910390fd5b600073ffffffffffffffffffffffffffffffffffffffff168273ffffffffffffffffffffffffffffffffffffffff16141561153e576040517f08c379a000000000000000000000000000000000000000000000000000000000815260040161153590612ca6565b60405180910390fd5b611549838383611c43565b6115546000826112c1565b6001600360008573ffffffffffffffffffffffffffffffffffffffff1673ffffffffffffffffffffffffffffffffffffffff16815260200190815260200160002060008282546115a4919061303a565b925050819055506001600360008473ffffffffffffffffffffffffffffffffffffffff1673ffffffffffffffffffffffffffffffffffffffff16815260200190815260200160002060008282546115fb9190612fb3565b92505081905550816002600083815260200190815260200160002060006101000a81548173ffffffffffffffffffffffffffffffffffffffff021916908373ffffffffffffffffffffffffffffffffffffffff160217905550808273ffffffffffffffffffffffffffffffffffffffff168473ffffffffffffffffffffffffffffffffffffffff167fddf252ad1be2c89b69c2b068fc378daa952ba7f163c4a11628f55a4df523b3ef60405160405180910390a4505050565b6000600760009054906101000a900473ffffffffffffffffffffffffffffffffffffffff16905081600760006101000a81548173ffffffffffffffffffffffffffffffffffffffff021916908373ffffffffffffffffffffffffffffffffffffffff1602179055508173ffffffffffffffffffffffffffffffffffffffff168173ffffffffffffffffffffffffffffffffffffffff167f8be0079c531659141344cd1fd0a4f28419497f9722a3daafe3b4186f6b6457e060405160405180910390a35050565b8173ffffffffffffffffffffffffffffffffffffffff168373ffffffffffffffffffffffffffffffffffffffff1614156117e9576040517f08c379a00000000000000000000000000000000000000000000000000000000081526004016117e090612cc6565b60405180910390fd5b80600560008573ffffffffffffffffffffffffffffffffffffffff1673ffffffffffffffffffffffffffffffffffffffff16815260200190815260200160002060008473ffffffffffffffffffffffffffffffffffffffff1673ffffffffffffffffffffffffffffffffffffffff16815260200190815260200160002060006101000a81548160ff0219169083151502179055508173ffffffffffffffffffffffffffffffffffffffff168373ffffffffffffffffffffffffffffffffffffffff167f17307eab39ab6107e8899845ad3d59bd9653f200f220920489ca2b5937696c31836040516118da9190612c09565b60405180910390a3505050565b6118f2848484611458565b6118fe84848484611c48565b61193d576040517f08c379a000000000000000000000000000000000000000000000000000000000815260040161193490612c46565b60405180910390fd5b50505050565b606060405180602001604052806000815250905090565b60606119658261124d565b6119a4576040517f08c379a000000000000000000000000000000000000000000000000000000000815260040161199b90612e26565b60405180910390fd5b60006119ae611943565b905060008151116119ce57604051806020016040528060008152506119f9565b806119d884611ddf565b6040516020016119e9929190612b7e565b6040516020818303038152906040525b915050919050565b600073ffffffffffffffffffffffffffffffffffffffff168273ffffffffffffffffffffffffffffffffffffffff161415611a71576040517f08c379a0000000000000000000000000000000000000000000000000000000008152600401611a6890612d86565b60405180910390fd5b611a7a8161124d565b15611aba576040517f08c379a0000000000000000000000000000000000000000000000000000000008152600401611ab190612c86565b60405180910390fd5b611ac660008383611c43565b6001600360008473ffffffffffffffffffffffffffffffffffffffff1673ffffffffffffffffffffffffffffffffffffffff1681526020019081526020016000206000828254611b169190612fb3565b92505081905550816002600083815260200190815260200160002060006101000a81548173ffffffffffffffffffffffffffffffffffffffff021916908373ffffffffffffffffffffffffffffffffffffffff160217905550808273ffffffffffffffffffffffffffffffffffffffff16600073ffffffffffffffffffffffffffffffffffffffff167fddf252ad1be2c89b69c2b068fc378daa952ba7f163c4a11628f55a4df523b3ef60405160405180910390a45050565b611bd88261124d565b611c17576040517f08c379a0000000000000000000000000000000000000000000000000000000008152600401611c0e90612d66565b60405180910390fd5b80600660008481526020019081526020016000209080519060200190611c3e929190611f9f565b505050565b505050565b6000611c698473ffffffffffffffffffffffffffffffffffffffff16611f8c565b15611dd2578373ffffffffffffffffffffffffffffffffffffffff1663150b7a02611c926112b9565b8786866040518563ffffffff1660e01b8152600401611cb49493929190612bbd565b602060405180830381600087803b158015611cce57600080fd5b505af1925050508015611cff57506040513d601f19601f82011682018060405250810190611cfc919061234b565b60015b611d82573d8060008114611d2f576040519150601f19603f3d011682016040523d82523d6000602084013e611d34565b606091505b50600081511415611d7a576040517f08c379a0000000000000000000000000000000000000000000000000000000008152600401611d7190612c46565b60405180910390fd5b805181602001fd5b63150b7a0260e01b7bffffffffffffffffffffffffffffffffffffffffffffffffffffffff1916817bffffffffffffffffffffffffffffffffffffffffffffffffffffffff191614915050611dd7565b600190505b949350505050565b60606000821415611e27576040518060400160405280600181526020017f30000000000000000000000000000000000000000000000000000000000000008152509050611f87565b600082905060005b60008214611e59578080611e4290613156565b915050600a82611e529190613009565b9150611e2f565b60008167ffffffffffffffff811115611e9b577f4e487b7100000000000000000000000000000000000000000000000000000000600052604160045260246000fd5b6040519080825280601f01601f191660200182016040528015611ecd5781602001600182028036833780820191505090505b5090505b60008514611f8057600182611ee6919061303a565b9150600a85611ef5919061319f565b6030611f019190612fb3565b60f81b818381518110611f3d577f4e487b7100000000000000000000000000000000000000000000000000000000600052603260045260246000fd5b60200101907effffffffffffffffffffffffffffffffffffffffffffffffffffffffffffff1916908160001a905350600a85611f799190613009565b9450611ed1565b8093505050505b919050565b600080823b905060008111915050919050565b828054611fab90613124565b90600052602060002090601f016020900481019282611fcd5760008555612014565b82601f10611fe657805160ff1916838001178555612014565b82800160010185558215612014579182015b82811115612013578251825591602001919060010190611ff8565b5b5090506120219190612025565b5090565b5b8082111561203e576000816000905550600101612026565b5090565b600061205561205084612f10565b612edf565b90508281526020810184848401111561206d57600080fd5b6120788482856130e2565b509392505050565b600061209361208e84612f40565b612edf565b9050828152602081018484840111156120ab57600080fd5b6120b68482856130e2565b509392505050565b6000813590506120cd8161329d565b92915050565b6000813590506120e2816132b4565b92915050565b6000813590506120f7816132cb565b92915050565b60008151905061210c816132cb565b92915050565b600082601f83011261212357600080fd5b8135612133848260208601612042565b91505092915050565b600082601f83011261214d57600080fd5b813561215d848260208601612080565b91505092915050565b600081359050612175816132e2565b92915050565b60006020828403121561218d57600080fd5b600061219b848285016120be565b91505092915050565b600080604083850312156121b757600080fd5b60006121c5858286016120be565b92505060206121d6858286016120be565b9150509250929050565b6000806000606084860312156121f557600080fd5b6000612203868287016120be565b9350506020612214868287016120be565b925050604061222586828701612166565b9150509250925092565b6000806000806080858703121561224557600080fd5b6000612253878288016120be565b9450506020612264878288016120be565b935050604061227587828801612166565b925050606085013567ffffffffffffffff81111561229257600080fd5b61229e87828801612112565b91505092959194509250565b600080604083850312156122bd57600080fd5b60006122cb858286016120be565b92505060206122dc858286016120d3565b9150509250929050565b600080604083850312156122f957600080fd5b6000612307858286016120be565b925050602061231885828601612166565b9150509250929050565b60006020828403121561233457600080fd5b6000612342848285016120e8565b91505092915050565b60006020828403121561235d57600080fd5b600061236b848285016120fd565b91505092915050565b60006020828403121561238657600080fd5b600082013567ffffffffffffffff8111156123a057600080fd5b6123ac8482850161213c565b91505092915050565b6000602082840312156123c757600080fd5b60006123d584828501612166565b91505092915050565b600080604083850312156123f157600080fd5b60006123ff85828601612166565b9250506020612410858286016120be565b9150509250929050565b6124238161306e565b82525050565b61243281613080565b82525050565b600061244382612f70565b61244d8185612f86565b935061245d8185602086016130f1565b6124668161328c565b840191505092915050565b600061247c82612f7b565b6124868185612f97565b93506124968185602086016130f1565b61249f8161328c565b840191505092915050565b60006124b582612f7b565b6124bf8185612fa8565b93506124cf8185602086016130f1565b80840191505092915050565b60006124e8603283612f97565b91507f4552433732313a207472616e7366657220746f206e6f6e20455243373231526560008301527f63656976657220696d706c656d656e74657200000000000000000000000000006020830152604082019050919050565b600061254e602683612f97565b91507f4f776e61626c653a206e6577206f776e657220697320746865207a65726f206160008301527f64647265737300000000000000000000000000000000000000000000000000006020830152604082019050919050565b60006125b4601c83612f97565b91507f4552433732313a20746f6b656e20616c7265616479206d696e746564000000006000830152602082019050919050565b60006125f4602483612f97565b91507f4552433732313a207472616e7366657220746f20746865207a65726f2061646460008301527f72657373000000000000000000000000000000000000000000000000000000006020830152604082019050919050565b600061265a601983612f97565b91507f4552433732313a20617070726f766520746f2063616c6c6572000000000000006000830152602082019050919050565b600061269a602c83612f97565b91507f4552433732313a206f70657261746f7220717565727920666f72206e6f6e657860008301527f697374656e7420746f6b656e00000000000000000000000000000000000000006020830152604082019050919050565b6000612700603883612f97565b91507f4552433732313a20617070726f76652063616c6c6572206973206e6f74206f7760008301527f6e6572206e6f7220617070726f76656420666f7220616c6c00000000000000006020830152604082019050919050565b6000612766602a83612f97565b91507f4552433732313a2062616c616e636520717565727920666f7220746865207a6560008301527f726f2061646472657373000000000000000000000000000000000000000000006020830152604082019050919050565b60006127cc602983612f97565b91507f4552433732313a206f776e657220717565727920666f72206e6f6e657869737460008301527f656e7420746f6b656e00000000000000000000000000000000000000000000006020830152604082019050919050565b6000612832602e83612f97565b91507f45524337323155524953746f726167653a2055524920736574206f66206e6f6e60008301527f6578697374656e7420746f6b656e0000000000000000000000000000000000006020830152604082019050919050565b6000612898602083612f97565b91507f4552433732313a206d696e7420746f20746865207a65726f20616464726573736000830152602082019050919050565b60006128d8603183612f97565b91507f45524337323155524953746f726167653a2055524920717565727920666f722060008301527f6e6f6e6578697374656e7420746f6b656e0000000000000000000000000000006020830152604082019050919050565b600061293e602c83612f97565b91507f4552433732313a20617070726f76656420717565727920666f72206e6f6e657860008301527f697374656e7420746f6b656e00000000000000000000000000000000000000006020830152604082019050919050565b60006129a4602083612f97565b91507f4f776e61626c653a2063616c6c6572206973206e6f7420746865206f776e65726000830152602082019050919050565b60006129e4602983612f97565b91507f4552433732313a207472616e73666572206f6620746f6b656e2074686174206960008301527f73206e6f74206f776e00000000000000000000000000000000000000000000006020830152604082019050919050565b6000612a4a602f83612f97565b91507f4552433732314d657461646174613a2055524920717565727920666f72206e6f60008301527f6e6578697374656e7420746f6b656e00000000000000000000000000000000006020830152604082019050919050565b6000612ab0602183612f97565b91507f4552433732313a20617070726f76616c20746f2063757272656e74206f776e6560008301527f72000000000000000000000000000000000000000000000000000000000000006020830152604082019050919050565b6000612b16603183612f97565b91507f4552433732313a207472616e736665722063616c6c6572206973206e6f74206f60008301527f776e6572206e6f7220617070726f7665640000000000000000000000000000006020830152604082019050919050565b612b78816130d8565b82525050565b6000612b8a82856124aa565b9150612b9682846124aa565b91508190509392505050565b6000602082019050612bb7600083018461241a565b92915050565b6000608082019050612bd2600083018761241a565b612bdf602083018661241a565b612bec6040830185612b6f565b8181036060830152612bfe8184612438565b905095945050505050565b6000602082019050612c1e6000830184612429565b92915050565b60006020820190508181036000830152612c3e8184612471565b905092915050565b60006020820190508181036000830152612c5f816124db565b9050919050565b60006020820190508181036000830152612c7f81612541565b9050919050565b60006020820190508181036000830152612c9f816125a7565b9050919050565b60006020820190508181036000830152612cbf816125e7565b9050919050565b60006020820190508181036000830152612cdf8161264d565b9050919050565b60006020820190508181036000830152612cff8161268d565b9050919050565b60006020820190508181036000830152612d1f816126f3565b9050919050565b60006020820190508181036000830152612d3f81612759565b9050919050565b60006020820190508181036000830152612d5f816127bf565b9050919050565b60006020820190508181036000830152612d7f81612825565b9050919050565b60006020820190508181036000830152612d9f8161288b565b9050919050565b60006020820190508181036000830152612dbf816128cb565b9050919050565b60006020820190508181036000830152612ddf81612931565b9050919050565b60006020820190508181036000830152612dff81612997565b9050919050565b60006020820190508181036000830152612e1f816129d7565b9050919050565b60006020820190508181036000830152612e3f81612a3d565b9050919050565b60006020820190508181036000830152612e5f81612aa3565b9050919050565b60006020820190508181036000830152612e7f81612b09565b9050919050565b6000602082019050612e9b6000830184612b6f565b92915050565b6000606082019050612eb66000830186612b6f565b8181036020830152612ec88185612471565b9050612ed7604083018461241a565b949350505050565b6000604051905081810181811067ffffffffffffffff82111715612f0657612f0561325d565b5b8060405250919050565b600067ffffffffffffffff821115612f2b57612f2a61325d565b5b601f19601f8301169050602081019050919050565b600067ffffffffffffffff821115612f5b57612f5a61325d565b5b601f19601f8301169050602081019050919050565b600081519050919050565b600081519050919050565b600082825260208201905092915050565b600082825260208201905092915050565b600081905092915050565b6000612fbe826130d8565b9150612fc9836130d8565b9250827fffffffffffffffffffffffffffffffffffffffffffffffffffffffffffffffff03821115612ffe57612ffd6131d0565b5b828201905092915050565b6000613014826130d8565b915061301f836130d8565b92508261302f5761302e6131ff565b5b828204905092915050565b6000613045826130d8565b9150613050836130d8565b925082821015613063576130626131d0565b5b828203905092915050565b6000613079826130b8565b9050919050565b60008115159050919050565b60007fffffffff0000000000000000000000000000000000000000000000000000000082169050919050565b600073ffffffffffffffffffffffffffffffffffffffff82169050919050565b6000819050919050565b82818337600083830152505050565b60005b8381101561310f5780820151818401526020810190506130f4565b8381111561311e576000848401525b50505050565b6000600282049050600182168061313c57607f821691505b602082108114156131505761314f61322e565b5b50919050565b6000613161826130d8565b91507fffffffffffffffffffffffffffffffffffffffffffffffffffffffffffffffff821415613194576131936131d0565b5b600182019050919050565b60006131aa826130d8565b91506131b5836130d8565b9250826131c5576131c46131ff565b5b828206905092915050565b7f4e487b7100000000000000000000000000000000000000000000000000000000600052601160045260246000fd5b7f4e487b7100000000000000000000000000000000000000000000000000000000600052601260045260246000fd5b7f4e487b7100000000000000000000000000000000000000000000000000000000600052602260045260246000fd5b7f4e487b7100000000000000000000000000000000000000000000000000000000600052604160045260246000fd5b6000601f19601f8301169050919050565b6132a68161306e565b81146132b157600080fd5b50565b6132bd81613080565b81146132c857600080fd5b50565b6132d48161308c565b81146132df57600080fd5b50565b6132eb816130d8565b81146132f657600080fd5b5056fea26469706673582212205daaf26a77702147486bebb49091343f6d5f97c350646f4baa41ce36c4bcdf5064736f6c63430008000033",
  "linkReferences": {},
  "deployedLinkReferences": {}
}